{
  "address": "0x9fE46736679d2D9a65F0992F2272dE9f3c7fa6e0",
  "abi": [
    {
      "inputs": [
        {
          "internalType": "bytes",
          "name": "blob",
          "type": "bytes"
        },
        {
          "internalType": "uint256[]",
          "name": "init_params",
          "type": "uint256[]"
        },
        {
          "internalType": "int256[][]",
          "name": "columns_rotations",
          "type": "int256[][]"
        },
        {
          "internalType": "uint256[]",
          "name": "public_input",
          "type": "uint256[]"
        },
        {
          "internalType": "address",
          "name": "gate_argument",
          "type": "address"
        }
      ],
      "name": "verify",
      "outputs": [
        {
          "internalType": "bool",
          "name": "result",
          "type": "bool"
        }
      ],
      "stateMutability": "view",
      "type": "function"
    }
  ],
  "transactionHash": "0xf62be6c00a7db56bb14529fdbc02b3828095567445a1b773a763d96682faca88",
  "args": [],
  "numDeployments": 1,
  "solcInputHash": "07ba7a0caa89b8f722031ca835c75c0d",
  "bytecode": "0x608060405234801561001057600080fd5b506128b0806100206000396000f3fe608060405234801561001057600080fd5b506004361061002b5760003560e01c8063c284622914610030575b600080fd5b61004361003e366004611dc2565b610057565b604051901515815260200160405180910390f35b6000610061611b76565b6100aa818a8a808060200260200160405190810160405280939291908181526020018383602002808284376000920191909152506100a592508b91508c9050611f29565b6103f7565b60c08101516040805160208101909152600090527fc5d2460186f7233c927e7db2dcc703c0e500b653ca82273b7bfad8045d85a47090526100ed8b8b6000610abb565b6040830181905260a08301919091528a1461010c5760009150506103ea565b61012481608001518c8c8460a0015160c00151610b8d565b509150816101365760009150506103ea565b610218604051806103c001604052806000815260200160008152602001600081526020016060815260200160008152602001606081526020016000815260200160008152602001606081526020016060815260200160008152602001600081526020016000815260200160008152602001600081526020016000815260200160008152602001600081526020016000815260200160008152602001600081526020016000815260200160008152602001606081526020016000815260200160008152602001600081526020016000815260200160008152602001600081525090565b6102398260c001518d8d6102348660a001516000015160080190565b610cbb565b61025e8c8c8460c001518560a0015186608001518760e0015187896101000151610dec565b6060820152604080518082019091526000808252602082015260808301805151825260c0840151905151610292919061121a565b8160200181815250506000859050806001600160a01b0316638009b83a8f8f8760a0015160c00151868961010001518a60e00151604001516040518763ffffffff1660e01b81526004016102eb9695949392919061201c565b602060405180830381865afa158015610308573d6000803e3d6000fd5b505050506040513d601f19601f8201168201806040525081019061032c9190612115565b83608001818152505073e7f1725E7734CE288F8367e1Bb143E90bb3F05126371f212b38f8f8760c001518860a0015189608001518a60e001518a8c61010001516040518963ffffffff1660e01b815260040161038f9897969594939291906126cd565b602060405180830381865af41580156103ac573d6000803e3d6000fd5b505050506040513d601f19601f820116820180604052508101906103d091906127b4565b6103e15760009450505050506103ea565b60019450505050505b9998505050505050505050565b600080808481610406816127ec565b94508151811061041857610418612805565b60209081029190910101516080870151528483610434816127ec565b94508151811061044657610446612805565b602002602001015186608001516020018181525050848380610467906127ec565b94508151811061047957610479612805565b60209081029190910101516080870151604001528483610498816127ec565b9450815181106104aa576104aa612805565b602090810291909101015160808701516060015284836104c9816127ec565b9450815181106104db576104db612805565b602090810291909101015160e08701515284836104f7816127ec565b94508151811061050957610509612805565b60209081029190910181015160e08801805190920152516040018490528483610531816127ec565b94508151811061054357610543612805565b60200260200101516001600160401b0381111561056257610562611ec0565b60405190808252806020026020018201604052801561058b578160200160208202803683370190505b50608087015160a001525060005b856080015160a00151518110156105f5578483815181106105bc576105bc612805565b6020026020010151866080015160a0015182815181106105de576105de612805565b602090810291909101015260019283019201610599565b6080860151600061016090910152848361060e816127ec565b94508151811061062057610620612805565b60200260200101516001600160401b0381111561063f5761063f611ec0565b604051908082528060200260200182016040528015610668578160200160208202803683370190505b50608087015160e001525060005b856080015160e00151518110156107365784838151811061069957610699612805565b6020026020010151866080015160e0015182815181106106bb576106bb612805565b60200260200101818152505085608001516101600151866080015160e0015182815181106106eb576106eb612805565b6020026020010151111561072a57856080015160e00151818151811061071357610713612805565b602002602001015186608001516101600181815250505b60019283019201610676565b845160028401938691600190910190811061075357610753612805565b602090810291909101015161010087015152845160018401938691811061077c5761077c612805565b602002602001015186610100015160200181815250508483806001019450815181106107aa576107aa612805565b60209081029190910101516101008701516040015284516001840193869181106107d6576107d6612805565b60209081029190910181015161010088018051606001919091525160408101519181015181510190910160a09190910152608086015161016081015160016000199091011b6102009091018190529150816001600160401b0381111561083e5761083e611ec0565b604051908082528060200260200182016040528015610867578160200160208202803683370190505b5060808701516101200152816001600160401b0381111561088a5761088a611ec0565b6040519080825280602002602001820160405280156108b3578160200160208202803683370190505b50608087015160c00152600182901b6001600160401b038111156108d9576108d9611ec0565b604051908082528060200260200182016040528015610902578160200160208202803683370190505b5060808701516101a00152816001600160401b0381111561092557610925611ec0565b60405190808252806020026020018201604052801561094e578160200160208202803683370190505b5060808701805161014001919091528051600461022091820152905101516001600160401b0381111561098357610983611ec0565b6040519080825280602002602001820160405280156109ac578160200160208202803683370190505b5060808701516102400152610100860151602081015190516109ce919061281b565b866080015161024001516000815181106109ea576109ea612805565b602002602001018181525050600186608001516102400151600181518110610a1457610a14612805565b602002602001018181525050600086608001516102400151600281518110610a3e57610a3e612805565b60209081029190910101526101008601516060810151604082015160a090920151909190610a6c908061281b565b610a76919061281b565b610a80919061281b565b610a8b90600261281b565b86608001516102400151600381518110610aa757610aa7612805565b602002602001018181525050505050505050565b610afb6040518060e00160405280600081526020016000815260200160008152602001600081526020016000815260200160008152602001600081525090565b8181526000610b0b858585611261565b60208301819052610b1f9086908690611261565b60408301819052610b339086908690611261565b60608301819052610b479086908690611261565b60808301819052610b5b9086908690611279565b60a08301819052610b6f9086908690611279565b60c08301819052610b83908690869061128a565b9050935093915050565b6102408401515160019060088301908584013560c01c908114610bb4576000925050610cb2565b60005b81811015610c96578761024001518181518110610bd657610bd6612805565b6020026020010151600003610c14578287013560c01c8861024001518281518110610c0357610c03612805565b602002602001018181525050610c4d565b8761024001518181518110610c2b57610c2b612805565b60209081029190910101518388013560c01c14610c4d57600093505050610cb2565b8761024001518181518110610c6457610c64612805565b6020026020010151886102e001818151610c7e919061281b565b905250610c8c8787856112cd565b9250600101610bb7565b506102608701829052610cab8787878561130e565b9093509150505b94509492505050565b818110610d2d5760405162461bcd60e51b815260206004820152603560248201527f7570646174655f7472616e7363726970745f6233325f62795f6f66667365743a604482015274040decccce6cae8407840c4d8dec45cd8cadccee8d605b1b60648201526084015b60405180910390fd5b610d37818361282e565b60201115610dad5760405162461bcd60e51b815260206004820152603b60248201527f7570646174655f7472616e7363726970745f6233325f62795f6f66667365743a60448201527f203332203c3d20626c6f622e6c656e677468202d206f666673657400000000006064820152608401610d24565b82810135610de58582815160408051602080820193909352808201939093528051808403820181526060909301905281519101209052565b5050505050565b6060610dfc87866000015161121a565b6101a08401528451610e0f90889061121a565b836101c0018181525050610e30878a8a60088a60200151610234919061281b565b60a0820151835281516103008401526020820151610320840152604082015161034084015260016101e0840181905261020084015260006103608401525b825161036084015110156110925760006103808401525b836040015183610360015181518110610ea057610ea0612805565b6020026020010151518361038001511015610f2257836040015183610360015181518110610ed057610ed0612805565b602002602001015183610380015181518110610eee57610eee612805565b6020026020010151600003610f095761038083015160408401525b6103808301805190610f1a826127ec565b905250610e85565b610f3989898860c0015186610360015160006116cb565b6102a084015260c086015161036084015160a0840151610f68928c928c92610f61919061281b565b60006116cb565b6102c08401526103008301516103608401511015610fa957610fa48584610f9f8c8c8b60c001518961036001518a60400151611710565b61171c565b611079565b826103200151836103000151610fbf919061281b565b8361036001511015610fea57610fa48584610f9f8c8c8b60c001518961036001518a60400151611710565b826103400151836103200151846103000151611006919061281b565b611010919061281b565b8361036001511015611079576110798584610f9f8c8c8b60c001518860a001518960a001518b61032001518c61030001518d6103600151611051919061282e565b61105b919061282e565b611065919061281b565b61106f919061281b565b8a604001516116cb565b610360830180519061108a826127ec565b905250610e6e565b6110a489898860c00151600080611772565b61022084015260c08601516110c0908a908a9060006001611772565b8361024001818152505061110689898860c00151856060015186604001518760a001518860a001516110f2919061281b565b6110fc919061281b565b610f61919061281b565b8361028001818152505061115789898860c00151856060015186604001518760a001518860a00151611138919061281b565b611142919061281b565b61114c919061281b565b610f6190600161281b565b61026084015260408051600380825260808201909252906020820160608036833701905050608087015190915089013560c0840152845161022084015181908190810360010860a08901518c01350960208301525084518081826101e087015161022088015109830383610200880151610240890151090882836102608801518503610280890151860308600108096040830152508451610220840151819081908082039082908009086102808601510960608301525098975050505050505050565b81516040516000916112329160200190815260200190565b60408051601f198184030181529190528051602090910120808452611258908390612841565b90505b92915050565b602881018281111561127257600080fd5b9392505050565b602081018281111561127257600080fd5b6008810160008483013560c01c5b808210156112b8576112ab8686856112cd565b9250600190910190611298565b6112c386868561177e565b9695505050505050565b60088101828111156112de57600080fd5b8382013560c01c60005b81811015611305576112fb8686856117e3565b92506001016112e8565b50509392505050565b60e08401515160019060088301908584013560c01c908114611334576000925050610cb2565b806001600160401b0381111561134c5761134c611ec0565b604051908082528060200260200182016040528015611375578160200160208202803683370190505b5061040088015260005b818110156113be578287016008013588610400015182815181106113a5576113a5612805565b602090810291909101015260288301925060010161137f565b5050610280860181905260208601516040870151600883019287013560c01c91906115ac906113ee90600161281b565b604080517ff8f9cbfae6cc78fbefe7cdc3a1793dfcf4f0e8bbd8cec470b6a28a7a5a3e1efd81527ff5ecf1b3e9debc68e1d9cfabc5997135bfb7a7a3938b7b606b5b4b3f2f1f0ffe60208201527ff6e4ed9ff2d6b458eadcdf97bd91692de2d4da8fd2d0ac50c6ae9a8272523616818301527fc8c0b887b0a8a4489c948c7f847c6125746c645c544c444038302820181008ff60608201527ff7cae577eec2a03cf3bad76fb589591debb2dd67e0aa9834bea6925f6a4a2e0e60808201527fe39ed557db96902cd38ed14fad815115c786af479b7e8324736353433727170760a08201527fc976c13bb96e881cb166a933a55e490d9d56952b8d4e801485467d236242260660c08201527f753a6d1b65325d0c552a4d1345224105391a310b29122104190a11030902010060e0820152610100808201909252600160f81b6001600160801b68010000000000000000640100000000620100006010600460026000198c019081041790810417908104178881041790810417908104179081041790810417017e818283848586878898a8b8c8d8e8f929395969799a9b9d9e9faaeb6bedeeff0281900460ff039091015104600160ff1b909211020190565b6115b6919061282e565b6115c190600161281b565b6001901b8111156115d6576000925050610cb2565b806001600160401b038111156115ee576115ee611ec0565b604051908082528060200260200182016040528015611617578160200160208202803683370190505b506103e088015260005b818110156116645782870135886103e00151828151811061164457611644612805565b60200260200101818152505061165a8360200190565b9250600101611621565b5050600881016102a087018190526060870151909186013560c01c908114611690576000925050610cb2565b60005b818110156116c0576116a7888888866117ff565b9094509250836116b8575050610cb2565b600101611693565b505094509492505050565b6000600884016116dc8787836118ac565b90506116e98787836118ac565b90506116f68787836118ac565b905061170587878387876118db565b979650505050505050565b600080600885016116f6565b82518081826101c0860151846102a08801516101a0890151090884086101e0850151096101e08401528081826101c0860151846102c08801516101a0890151090884086102008501510961020084015250505050565b600080600885016116e9565b600881018382013560c01c60005b818110156117a25760288301925060010161178c565b5060088286013560c01c60200283010191508482013560c01c600883019250905060005b81811015611305576117d9868685611919565b92506001016117c6565b60208382013560c01c0281016008018281111561127257600080fd5b6102408401515160019060088301908584013560c01c908114611826576000925050610cb2565b60005b818110156118575761183e8882898987611971565b90945092508361184f575050610cb2565b600101611829565b505060e086015151600882019186013560c01c90811461187b576000925050610cb2565b60005b818110156116c0576118938882898987611a82565b9094509250836118a4575050610cb2565b60010161187e565b600881018382013560c01c60005b818110156113055760088387013560c01c60200284010192506001016118ba565b600060088401935060005b838110156119075760088588013560c01c60200286010194506001016118e6565b506008602083028501870101356112c3565b600881018382013560c01c60005b818110156119445761193a868685611b2d565b9250600101611927565b5050600881019084013560c01c60005b8181101561130557611967868685611b5e565b9250600101611954565b610240850151805160019160408685016030013560c090811c60389081028701928301949289010135901c9190889081106119ae576119ae612805565b602002602001015181146119c6576000925050611a78565b5060e08701518051600883019287013560c01c91906000906119ea576119ea612805565b60200260200101516001901b8114611a06576000925050611a78565b5060e0870151805160088388013560c01c6020810290940101929190600090611a3157611a31612805565b60200260200101516001901b8861024001518881518110611a5457611a54612805565b6020026020010151611a669190612863565b8114611a76576000925050611a78565b505b9550959350505050565b6001600060386030848701013560c01c8102840101905060018760e0015151611aab919061282e565b861015611afb5760e0870151611ac287600161281b565b81518110611ad257611ad2612805565b60209081029190910101516001901b8186013560c01c14611af65760009150611a78565b611b12565b8085013560c01c600214611b125760009150611a78565b60088186013560c01c60200282010190509550959350505050565b60386030828501013560c01c02810160408101906048015b905060088482013560c01c602002820101949350505050565b600060386030838601013560c01c8102830101611b45565b60405180610120016040528060008152602001600081526020016000815260200160008152602001611c956040518061042001604052806000815260200160008152602001600081526020016000815260200160008152602001606081526020016060815260200160608152602001606081526020016060815260200160608152602001600081526020016000815260200160608152602001606081526020016000815260200160008152602001600081526020016060815260200160008152602001600081526020016000815260200160008152602001600081526020016060815260200160608152602001606081526020016060815260200160608152602001600081526020016060815260200160608152602001606081525090565b8152602001611cda6040518060e00160405280600081526020016000815260200160008152602001600081526020016000815260200160008152602001600081525090565b8152604080516020818101909252600081529101908152602001611d1860405180606001604052806000815260200160008152602001606081525090565b8152602001611d566040518060c001604052806000815260200160008152602001600081526020016000815260200160008152602001600081525090565b905290565b60008083601f840112611d6d57600080fd5b5081356001600160401b03811115611d8457600080fd5b6020830191508360208260051b8501011115611d9f57600080fd5b9250929050565b80356001600160a01b0381168114611dbd57600080fd5b919050565b600080600080600080600080600060a08a8c031215611de057600080fd5b89356001600160401b0380821115611df757600080fd5b818c0191508c601f830112611e0b57600080fd5b813581811115611e1a57600080fd5b8d6020828501011115611e2c57600080fd5b60209283019b509950908b01359080821115611e4757600080fd5b611e538d838e01611d5b565b909950975060408c0135915080821115611e6c57600080fd5b611e788d838e01611d5b565b909750955060608c0135915080821115611e9157600080fd5b50611e9e8c828d01611d5b565b9094509250611eb1905060808b01611da6565b90509295985092959850929598565b634e487b7160e01b600052604160045260246000fd5b604051601f8201601f191681016001600160401b0381118282101715611efe57611efe611ec0565b604052919050565b60006001600160401b03821115611f1f57611f1f611ec0565b5060051b60200190565b6000611f3c611f3784611f06565b611ed6565b83815260208082019190600586811b860136811115611f5a57600080fd5b865b81811015611fe65780356001600160401b03811115611f7b5760008081fd5b880136601f820112611f8d5760008081fd5b8035611f9b611f3782611f06565b81815290851b82018601908681019036831115611fb85760008081fd5b928701925b82841015611fd657833582529287019290870190611fbd565b8952505050948301948301611f5c565b5092979650505050505050565b81835281816020850137506000828201602090810191909152601f909101601f19169091010190565b6000610160808352612031818401898b611ff3565b9050602087818501528651604085015280870151606085015261208c6080850187805182526020810151602083015260408101516040830152606081015160608301526080810151608083015260a081015160a08301525050565b838203610140850152845180835281830190600581901b840183018388016000805b8481101561210157878403601f19018652825180518086529088019088860190845b818110156120ec5783518352928a0192918a01916001016120d0565b505096880196945050918601916001016120ae565b50919e9d5050505050505050505050505050565b60006020828403121561212757600080fd5b5051919050565b600081518084526020808501945080840160005b8381101561215e57815187529582019590820190600101612142565b509495945050505050565b600081518084526020808501808196508360051b8101915082860160005b858110156121b157828403895261219f84835161212e565b98850198935090840190600101612187565b5091979650505050505050565b6000610420825184526020830151602085015260408301516040850152606083015160608501526080830151608085015260a08301518160a08601526122068286018261212e565b91505060c083015184820360c0860152612220828261212e565b91505060e083015184820360e086015261223a828261212e565b9150506101008084015185830382870152612255838261212e565b925050506101208084015185830382870152612271838261212e565b92505050610140808401518583038287015261228d838261212e565b925050506101608084015181860152506101808084015181860152506101a080840151858303828701526122c1838261212e565b925050506101c080840151858303828701526122dd8382612169565b925050506101e0808401518186015250610200808401518186015250610220808401518186015250610240808401518583038287015261231d838261212e565b610260868101519088015261028080870151908801526102a080870151908801526102c080870151908801526102e0808701519088015261030080870151888303828a0152919450925090506123738382612169565b92505050610320808401518583038287015261238f8382612169565b9250505061034080840151858303828701526123ab838261212e565b9250505061036080840151858303828701526123c7838261212e565b9250505061038080840151858303828701526123e38382612169565b925050506103a08084015181860152506103c0808401518583038287015261240b838261212e565b925050506103e08084015185830382870152612427838261212e565b9250505061040080840151858303828701526112c3838261212e565b600060608301825184526020808401518186015260408401516060604087015282815180855260808801915060808160051b890101945083830192506000805b828110156124d757898703607f19018452845180518089529087019087890190845b818110156124c1578351835292890192918901916001016124a5565b5090985050509385019392850192600101612483565b509498975050505050505050565b600081518084526020808501808196508360051b8101915082860160005b858110156121b157828403895261251b848351612169565b98850198935090840190600101612503565b60006103c082518452602083015160208501526040830151604085015260608301518160608601526125618286018261212e565b9150506080830151608085015260a083015184820360a0860152612585828261212e565b91505060c083015160c085015260e083015160e085015261010080840151858303828701526125b483826124e5565b9250505061012080840151858303828701526125d0838261212e565b6101408681015190880152610160808701519088015261018080870151908801526101a080870151908801526101c080870151908801526101e08087015190880152610200808701519088015261022080870151908801526102408087015190880152610260808701519088015261028080870151908801526102a080870151908801526102c080870151908801526102e080870151888303828a01529194509250905061267e838261212e565b610300868101519088015261032080870151908801526103408087015190880152610360808701519088015261038080870151908801526103a095860151959096019490945250929392505050565b60006102408083526126e28184018b8d611ff3565b905088516020840152875160408401526020880151606084015260408801516080840152606088015160a0840152608088015160c084015260a088015160e084015260c088015161010084015282810361012084015261274281886121be565b90508281036101408401526127578187612443565b905082810361016084015261276c818661252d565b845161018085015260208501516101a085015260408501516101c085015260608501516101e0850152608085015161020085015260a085015161022085015291506103ea9050565b6000602082840312156127c657600080fd5b8151801515811461127257600080fd5b634e487b7160e01b600052601160045260246000fd5b6000600182016127fe576127fe6127d6565b5060010190565b634e487b7160e01b600052603260045260246000fd5b8082018082111561125b5761125b6127d6565b8181038181111561125b5761125b6127d6565b60008261285e57634e487b7160e01b600052601260045260246000fd5b500690565b808202811582820484141761125b5761125b6127d656fea2646970667358221220b127aa41596d3a4e8e9ce32d6d9ce23694062ce4c78e8bbd45801004a00643ce64736f6c63430008130033",
  "deployedBytecode": "0x608060405234801561001057600080fd5b506004361061002b5760003560e01c8063c284622914610030575b600080fd5b61004361003e366004611dc2565b610057565b604051901515815260200160405180910390f35b6000610061611b76565b6100aa818a8a808060200260200160405190810160405280939291908181526020018383602002808284376000920191909152506100a592508b91508c9050611f29565b6103f7565b60c08101516040805160208101909152600090527fc5d2460186f7233c927e7db2dcc703c0e500b653ca82273b7bfad8045d85a47090526100ed8b8b6000610abb565b6040830181905260a08301919091528a1461010c5760009150506103ea565b61012481608001518c8c8460a0015160c00151610b8d565b509150816101365760009150506103ea565b610218604051806103c001604052806000815260200160008152602001600081526020016060815260200160008152602001606081526020016000815260200160008152602001606081526020016060815260200160008152602001600081526020016000815260200160008152602001600081526020016000815260200160008152602001600081526020016000815260200160008152602001600081526020016000815260200160008152602001606081526020016000815260200160008152602001600081526020016000815260200160008152602001600081525090565b6102398260c001518d8d6102348660a001516000015160080190565b610cbb565b61025e8c8c8460c001518560a0015186608001518760e0015187896101000151610dec565b6060820152604080518082019091526000808252602082015260808301805151825260c0840151905151610292919061121a565b8160200181815250506000859050806001600160a01b0316638009b83a8f8f8760a0015160c00151868961010001518a60e00151604001516040518763ffffffff1660e01b81526004016102eb9695949392919061201c565b602060405180830381865afa158015610308573d6000803e3d6000fd5b505050506040513d601f19601f8201168201806040525081019061032c9190612115565b83608001818152505073__$0e7306d99f8cf8edfbb6d44389b6e6fe56$__6371f212b38f8f8760c001518860a0015189608001518a60e001518a8c61010001516040518963ffffffff1660e01b815260040161038f9897969594939291906126cd565b602060405180830381865af41580156103ac573d6000803e3d6000fd5b505050506040513d601f19601f820116820180604052508101906103d091906127b4565b6103e15760009450505050506103ea565b60019450505050505b9998505050505050505050565b600080808481610406816127ec565b94508151811061041857610418612805565b60209081029190910101516080870151528483610434816127ec565b94508151811061044657610446612805565b602002602001015186608001516020018181525050848380610467906127ec565b94508151811061047957610479612805565b60209081029190910101516080870151604001528483610498816127ec565b9450815181106104aa576104aa612805565b602090810291909101015160808701516060015284836104c9816127ec565b9450815181106104db576104db612805565b602090810291909101015160e08701515284836104f7816127ec565b94508151811061050957610509612805565b60209081029190910181015160e08801805190920152516040018490528483610531816127ec565b94508151811061054357610543612805565b60200260200101516001600160401b0381111561056257610562611ec0565b60405190808252806020026020018201604052801561058b578160200160208202803683370190505b50608087015160a001525060005b856080015160a00151518110156105f5578483815181106105bc576105bc612805565b6020026020010151866080015160a0015182815181106105de576105de612805565b602090810291909101015260019283019201610599565b6080860151600061016090910152848361060e816127ec565b94508151811061062057610620612805565b60200260200101516001600160401b0381111561063f5761063f611ec0565b604051908082528060200260200182016040528015610668578160200160208202803683370190505b50608087015160e001525060005b856080015160e00151518110156107365784838151811061069957610699612805565b6020026020010151866080015160e0015182815181106106bb576106bb612805565b60200260200101818152505085608001516101600151866080015160e0015182815181106106eb576106eb612805565b6020026020010151111561072a57856080015160e00151818151811061071357610713612805565b602002602001015186608001516101600181815250505b60019283019201610676565b845160028401938691600190910190811061075357610753612805565b602090810291909101015161010087015152845160018401938691811061077c5761077c612805565b602002602001015186610100015160200181815250508483806001019450815181106107aa576107aa612805565b60209081029190910101516101008701516040015284516001840193869181106107d6576107d6612805565b60209081029190910181015161010088018051606001919091525160408101519181015181510190910160a09190910152608086015161016081015160016000199091011b6102009091018190529150816001600160401b0381111561083e5761083e611ec0565b604051908082528060200260200182016040528015610867578160200160208202803683370190505b5060808701516101200152816001600160401b0381111561088a5761088a611ec0565b6040519080825280602002602001820160405280156108b3578160200160208202803683370190505b50608087015160c00152600182901b6001600160401b038111156108d9576108d9611ec0565b604051908082528060200260200182016040528015610902578160200160208202803683370190505b5060808701516101a00152816001600160401b0381111561092557610925611ec0565b60405190808252806020026020018201604052801561094e578160200160208202803683370190505b5060808701805161014001919091528051600461022091820152905101516001600160401b0381111561098357610983611ec0565b6040519080825280602002602001820160405280156109ac578160200160208202803683370190505b5060808701516102400152610100860151602081015190516109ce919061281b565b866080015161024001516000815181106109ea576109ea612805565b602002602001018181525050600186608001516102400151600181518110610a1457610a14612805565b602002602001018181525050600086608001516102400151600281518110610a3e57610a3e612805565b60209081029190910101526101008601516060810151604082015160a090920151909190610a6c908061281b565b610a76919061281b565b610a80919061281b565b610a8b90600261281b565b86608001516102400151600381518110610aa757610aa7612805565b602002602001018181525050505050505050565b610afb6040518060e00160405280600081526020016000815260200160008152602001600081526020016000815260200160008152602001600081525090565b8181526000610b0b858585611261565b60208301819052610b1f9086908690611261565b60408301819052610b339086908690611261565b60608301819052610b479086908690611261565b60808301819052610b5b9086908690611279565b60a08301819052610b6f9086908690611279565b60c08301819052610b83908690869061128a565b9050935093915050565b6102408401515160019060088301908584013560c01c908114610bb4576000925050610cb2565b60005b81811015610c96578761024001518181518110610bd657610bd6612805565b6020026020010151600003610c14578287013560c01c8861024001518281518110610c0357610c03612805565b602002602001018181525050610c4d565b8761024001518181518110610c2b57610c2b612805565b60209081029190910101518388013560c01c14610c4d57600093505050610cb2565b8761024001518181518110610c6457610c64612805565b6020026020010151886102e001818151610c7e919061281b565b905250610c8c8787856112cd565b9250600101610bb7565b506102608701829052610cab8787878561130e565b9093509150505b94509492505050565b818110610d2d5760405162461bcd60e51b815260206004820152603560248201527f7570646174655f7472616e7363726970745f6233325f62795f6f66667365743a604482015274040decccce6cae8407840c4d8dec45cd8cadccee8d605b1b60648201526084015b60405180910390fd5b610d37818361282e565b60201115610dad5760405162461bcd60e51b815260206004820152603b60248201527f7570646174655f7472616e7363726970745f6233325f62795f6f66667365743a60448201527f203332203c3d20626c6f622e6c656e677468202d206f666673657400000000006064820152608401610d24565b82810135610de58582815160408051602080820193909352808201939093528051808403820181526060909301905281519101209052565b5050505050565b6060610dfc87866000015161121a565b6101a08401528451610e0f90889061121a565b836101c0018181525050610e30878a8a60088a60200151610234919061281b565b60a0820151835281516103008401526020820151610320840152604082015161034084015260016101e0840181905261020084015260006103608401525b825161036084015110156110925760006103808401525b836040015183610360015181518110610ea057610ea0612805565b6020026020010151518361038001511015610f2257836040015183610360015181518110610ed057610ed0612805565b602002602001015183610380015181518110610eee57610eee612805565b6020026020010151600003610f095761038083015160408401525b6103808301805190610f1a826127ec565b905250610e85565b610f3989898860c0015186610360015160006116cb565b6102a084015260c086015161036084015160a0840151610f68928c928c92610f61919061281b565b60006116cb565b6102c08401526103008301516103608401511015610fa957610fa48584610f9f8c8c8b60c001518961036001518a60400151611710565b61171c565b611079565b826103200151836103000151610fbf919061281b565b8361036001511015610fea57610fa48584610f9f8c8c8b60c001518961036001518a60400151611710565b826103400151836103200151846103000151611006919061281b565b611010919061281b565b8361036001511015611079576110798584610f9f8c8c8b60c001518860a001518960a001518b61032001518c61030001518d6103600151611051919061282e565b61105b919061282e565b611065919061281b565b61106f919061281b565b8a604001516116cb565b610360830180519061108a826127ec565b905250610e6e565b6110a489898860c00151600080611772565b61022084015260c08601516110c0908a908a9060006001611772565b8361024001818152505061110689898860c00151856060015186604001518760a001518860a001516110f2919061281b565b6110fc919061281b565b610f61919061281b565b8361028001818152505061115789898860c00151856060015186604001518760a001518860a00151611138919061281b565b611142919061281b565b61114c919061281b565b610f6190600161281b565b61026084015260408051600380825260808201909252906020820160608036833701905050608087015190915089013560c0840152845161022084015181908190810360010860a08901518c01350960208301525084518081826101e087015161022088015109830383610200880151610240890151090882836102608801518503610280890151860308600108096040830152508451610220840151819081908082039082908009086102808601510960608301525098975050505050505050565b81516040516000916112329160200190815260200190565b60408051601f198184030181529190528051602090910120808452611258908390612841565b90505b92915050565b602881018281111561127257600080fd5b9392505050565b602081018281111561127257600080fd5b6008810160008483013560c01c5b808210156112b8576112ab8686856112cd565b9250600190910190611298565b6112c386868561177e565b9695505050505050565b60088101828111156112de57600080fd5b8382013560c01c60005b81811015611305576112fb8686856117e3565b92506001016112e8565b50509392505050565b60e08401515160019060088301908584013560c01c908114611334576000925050610cb2565b806001600160401b0381111561134c5761134c611ec0565b604051908082528060200260200182016040528015611375578160200160208202803683370190505b5061040088015260005b818110156113be578287016008013588610400015182815181106113a5576113a5612805565b602090810291909101015260288301925060010161137f565b5050610280860181905260208601516040870151600883019287013560c01c91906115ac906113ee90600161281b565b604080517ff8f9cbfae6cc78fbefe7cdc3a1793dfcf4f0e8bbd8cec470b6a28a7a5a3e1efd81527ff5ecf1b3e9debc68e1d9cfabc5997135bfb7a7a3938b7b606b5b4b3f2f1f0ffe60208201527ff6e4ed9ff2d6b458eadcdf97bd91692de2d4da8fd2d0ac50c6ae9a8272523616818301527fc8c0b887b0a8a4489c948c7f847c6125746c645c544c444038302820181008ff60608201527ff7cae577eec2a03cf3bad76fb589591debb2dd67e0aa9834bea6925f6a4a2e0e60808201527fe39ed557db96902cd38ed14fad815115c786af479b7e8324736353433727170760a08201527fc976c13bb96e881cb166a933a55e490d9d56952b8d4e801485467d236242260660c08201527f753a6d1b65325d0c552a4d1345224105391a310b29122104190a11030902010060e0820152610100808201909252600160f81b6001600160801b68010000000000000000640100000000620100006010600460026000198c019081041790810417908104178881041790810417908104179081041790810417017e818283848586878898a8b8c8d8e8f929395969799a9b9d9e9faaeb6bedeeff0281900460ff039091015104600160ff1b909211020190565b6115b6919061282e565b6115c190600161281b565b6001901b8111156115d6576000925050610cb2565b806001600160401b038111156115ee576115ee611ec0565b604051908082528060200260200182016040528015611617578160200160208202803683370190505b506103e088015260005b818110156116645782870135886103e00151828151811061164457611644612805565b60200260200101818152505061165a8360200190565b9250600101611621565b5050600881016102a087018190526060870151909186013560c01c908114611690576000925050610cb2565b60005b818110156116c0576116a7888888866117ff565b9094509250836116b8575050610cb2565b600101611693565b505094509492505050565b6000600884016116dc8787836118ac565b90506116e98787836118ac565b90506116f68787836118ac565b905061170587878387876118db565b979650505050505050565b600080600885016116f6565b82518081826101c0860151846102a08801516101a0890151090884086101e0850151096101e08401528081826101c0860151846102c08801516101a0890151090884086102008501510961020084015250505050565b600080600885016116e9565b600881018382013560c01c60005b818110156117a25760288301925060010161178c565b5060088286013560c01c60200283010191508482013560c01c600883019250905060005b81811015611305576117d9868685611919565b92506001016117c6565b60208382013560c01c0281016008018281111561127257600080fd5b6102408401515160019060088301908584013560c01c908114611826576000925050610cb2565b60005b818110156118575761183e8882898987611971565b90945092508361184f575050610cb2565b600101611829565b505060e086015151600882019186013560c01c90811461187b576000925050610cb2565b60005b818110156116c0576118938882898987611a82565b9094509250836118a4575050610cb2565b60010161187e565b600881018382013560c01c60005b818110156113055760088387013560c01c60200284010192506001016118ba565b600060088401935060005b838110156119075760088588013560c01c60200286010194506001016118e6565b506008602083028501870101356112c3565b600881018382013560c01c60005b818110156119445761193a868685611b2d565b9250600101611927565b5050600881019084013560c01c60005b8181101561130557611967868685611b5e565b9250600101611954565b610240850151805160019160408685016030013560c090811c60389081028701928301949289010135901c9190889081106119ae576119ae612805565b602002602001015181146119c6576000925050611a78565b5060e08701518051600883019287013560c01c91906000906119ea576119ea612805565b60200260200101516001901b8114611a06576000925050611a78565b5060e0870151805160088388013560c01c6020810290940101929190600090611a3157611a31612805565b60200260200101516001901b8861024001518881518110611a5457611a54612805565b6020026020010151611a669190612863565b8114611a76576000925050611a78565b505b9550959350505050565b6001600060386030848701013560c01c8102840101905060018760e0015151611aab919061282e565b861015611afb5760e0870151611ac287600161281b565b81518110611ad257611ad2612805565b60209081029190910101516001901b8186013560c01c14611af65760009150611a78565b611b12565b8085013560c01c600214611b125760009150611a78565b60088186013560c01c60200282010190509550959350505050565b60386030828501013560c01c02810160408101906048015b905060088482013560c01c602002820101949350505050565b600060386030838601013560c01c8102830101611b45565b60405180610120016040528060008152602001600081526020016000815260200160008152602001611c956040518061042001604052806000815260200160008152602001600081526020016000815260200160008152602001606081526020016060815260200160608152602001606081526020016060815260200160608152602001600081526020016000815260200160608152602001606081526020016000815260200160008152602001600081526020016060815260200160008152602001600081526020016000815260200160008152602001600081526020016060815260200160608152602001606081526020016060815260200160608152602001600081526020016060815260200160608152602001606081525090565b8152602001611cda6040518060e00160405280600081526020016000815260200160008152602001600081526020016000815260200160008152602001600081525090565b8152604080516020818101909252600081529101908152602001611d1860405180606001604052806000815260200160008152602001606081525090565b8152602001611d566040518060c001604052806000815260200160008152602001600081526020016000815260200160008152602001600081525090565b905290565b60008083601f840112611d6d57600080fd5b5081356001600160401b03811115611d8457600080fd5b6020830191508360208260051b8501011115611d9f57600080fd5b9250929050565b80356001600160a01b0381168114611dbd57600080fd5b919050565b600080600080600080600080600060a08a8c031215611de057600080fd5b89356001600160401b0380821115611df757600080fd5b818c0191508c601f830112611e0b57600080fd5b813581811115611e1a57600080fd5b8d6020828501011115611e2c57600080fd5b60209283019b509950908b01359080821115611e4757600080fd5b611e538d838e01611d5b565b909950975060408c0135915080821115611e6c57600080fd5b611e788d838e01611d5b565b909750955060608c0135915080821115611e9157600080fd5b50611e9e8c828d01611d5b565b9094509250611eb1905060808b01611da6565b90509295985092959850929598565b634e487b7160e01b600052604160045260246000fd5b604051601f8201601f191681016001600160401b0381118282101715611efe57611efe611ec0565b604052919050565b60006001600160401b03821115611f1f57611f1f611ec0565b5060051b60200190565b6000611f3c611f3784611f06565b611ed6565b83815260208082019190600586811b860136811115611f5a57600080fd5b865b81811015611fe65780356001600160401b03811115611f7b5760008081fd5b880136601f820112611f8d5760008081fd5b8035611f9b611f3782611f06565b81815290851b82018601908681019036831115611fb85760008081fd5b928701925b82841015611fd657833582529287019290870190611fbd565b8952505050948301948301611f5c565b5092979650505050505050565b81835281816020850137506000828201602090810191909152601f909101601f19169091010190565b6000610160808352612031818401898b611ff3565b9050602087818501528651604085015280870151606085015261208c6080850187805182526020810151602083015260408101516040830152606081015160608301526080810151608083015260a081015160a08301525050565b838203610140850152845180835281830190600581901b840183018388016000805b8481101561210157878403601f19018652825180518086529088019088860190845b818110156120ec5783518352928a0192918a01916001016120d0565b505096880196945050918601916001016120ae565b50919e9d5050505050505050505050505050565b60006020828403121561212757600080fd5b5051919050565b600081518084526020808501945080840160005b8381101561215e57815187529582019590820190600101612142565b509495945050505050565b600081518084526020808501808196508360051b8101915082860160005b858110156121b157828403895261219f84835161212e565b98850198935090840190600101612187565b5091979650505050505050565b6000610420825184526020830151602085015260408301516040850152606083015160608501526080830151608085015260a08301518160a08601526122068286018261212e565b91505060c083015184820360c0860152612220828261212e565b91505060e083015184820360e086015261223a828261212e565b9150506101008084015185830382870152612255838261212e565b925050506101208084015185830382870152612271838261212e565b92505050610140808401518583038287015261228d838261212e565b925050506101608084015181860152506101808084015181860152506101a080840151858303828701526122c1838261212e565b925050506101c080840151858303828701526122dd8382612169565b925050506101e0808401518186015250610200808401518186015250610220808401518186015250610240808401518583038287015261231d838261212e565b610260868101519088015261028080870151908801526102a080870151908801526102c080870151908801526102e0808701519088015261030080870151888303828a0152919450925090506123738382612169565b92505050610320808401518583038287015261238f8382612169565b9250505061034080840151858303828701526123ab838261212e565b9250505061036080840151858303828701526123c7838261212e565b9250505061038080840151858303828701526123e38382612169565b925050506103a08084015181860152506103c0808401518583038287015261240b838261212e565b925050506103e08084015185830382870152612427838261212e565b9250505061040080840151858303828701526112c3838261212e565b600060608301825184526020808401518186015260408401516060604087015282815180855260808801915060808160051b890101945083830192506000805b828110156124d757898703607f19018452845180518089529087019087890190845b818110156124c1578351835292890192918901916001016124a5565b5090985050509385019392850192600101612483565b509498975050505050505050565b600081518084526020808501808196508360051b8101915082860160005b858110156121b157828403895261251b848351612169565b98850198935090840190600101612503565b60006103c082518452602083015160208501526040830151604085015260608301518160608601526125618286018261212e565b9150506080830151608085015260a083015184820360a0860152612585828261212e565b91505060c083015160c085015260e083015160e085015261010080840151858303828701526125b483826124e5565b9250505061012080840151858303828701526125d0838261212e565b6101408681015190880152610160808701519088015261018080870151908801526101a080870151908801526101c080870151908801526101e08087015190880152610200808701519088015261022080870151908801526102408087015190880152610260808701519088015261028080870151908801526102a080870151908801526102c080870151908801526102e080870151888303828a01529194509250905061267e838261212e565b610300868101519088015261032080870151908801526103408087015190880152610360808701519088015261038080870151908801526103a095860151959096019490945250929392505050565b60006102408083526126e28184018b8d611ff3565b905088516020840152875160408401526020880151606084015260408801516080840152606088015160a0840152608088015160c084015260a088015160e084015260c088015161010084015282810361012084015261274281886121be565b90508281036101408401526127578187612443565b905082810361016084015261276c818661252d565b845161018085015260208501516101a085015260408501516101c085015260608501516101e0850152608085015161020085015260a085015161022085015291506103ea9050565b6000602082840312156127c657600080fd5b8151801515811461127257600080fd5b634e487b7160e01b600052601160045260246000fd5b6000600182016127fe576127fe6127d6565b5060010190565b634e487b7160e01b600052603260045260246000fd5b8082018082111561125b5761125b6127d6565b8181038181111561125b5761125b6127d6565b60008261285e57634e487b7160e01b600052601260045260246000fd5b500690565b808202811582820484141761125b5761125b6127d656fea2646970667358221220b127aa41596d3a4e8e9ce32d6d9ce23694062ce4c78e8bbd45801004a00643ce64736f6c63430008130033",
  "libraries": {
    "ProofVerifier": "0xe7f1725E7734CE288F8367e1Bb143E90bb3F0512"
  },
  "devdoc": {
    "kind": "dev",
    "methods": {},
    "version": 1
  },
  "userdoc": {
    "kind": "user",
    "methods": {},
    "version": 1
  },
  "storageLayout": {
    "storage": [],
    "types": null
  }
}