{
  "address": "0x5FbDB2315678afecb367f032d93F642f64180aa3",
  "abi": [
    {
      "inputs": [
        {
          "internalType": "bytes",
          "name": "blob",
          "type": "bytes"
        },
        {
          "internalType": "uint256",
          "name": "eval_proof_combined_value_offset",
          "type": "uint256"
        },
        {
          "components": [
            {
              "internalType": "uint256",
              "name": "modulus",
              "type": "uint256"
            },
            {
              "internalType": "uint256",
              "name": "theta",
              "type": "uint256"
            }
          ],
          "internalType": "struct types.gate_argument_params",
          "name": "gate_params",
          "type": "tuple"
        },
        {
          "components": [
            {
              "internalType": "uint256",
              "name": "witness_columns",
              "type": "uint256"
            },
            {
              "internalType": "uint256",
              "name": "public_input_columns",
              "type": "uint256"
            },
            {
              "internalType": "uint256",
              "name": "constant_columns",
              "type": "uint256"
            },
            {
              "internalType": "uint256",
              "name": "selector_columns",
              "type": "uint256"
            },
            {
              "internalType": "uint256",
              "name": "lookup_table_size",
              "type": "uint256"
            },
            {
              "internalType": "uint256",
              "name": "permutation_columns",
              "type": "uint256"
            }
          ],
          "internalType": "struct types.arithmetization_params",
          "name": "ar_params",
          "type": "tuple"
        },
        {
          "internalType": "int256[][]",
          "name": "columns_rotations",
          "type": "int256[][]"
        }
      ],
      "name": "evaluate_gates_be",
      "outputs": [
        {
          "internalType": "uint256",
          "name": "gates_evaluation",
          "type": "uint256"
        }
      ],
      "stateMutability": "pure",
      "type": "function"
    }
  ],
  "transactionHash": "0x5b44b42113c99554561452f0586825b07de2012e187a81bbf585eaea45233d09",
  "args": [],
  "numDeployments": 1,
  "solcInputHash": "bb4d2b75948dfcdd8899ba193abaed54",
  "bytecode": "0x608060405234801561001057600080fd5b506105f7806100206000396000f3fe608060405234801561001057600080fd5b506004361061002b5760003560e01c80638009b83a14610030575b600080fd5b61004361003e3660046104b9565b610055565b60405190815260200160405180910390f35b60006100906040518060c001604052806000815260200160008152602001600081526020016000815260200160608152602001606081525090565b845167ffffffffffffffff8111156100aa576100aa610372565b6040519080825280602002602001820160405280156100d3578160200160208202803683370190505b50608082015260005b855181101561011c576100f38a8a8a8460006102aa565b8260800151828151811061010957610109610584565b60209081029190910101526001016100dc565b50846060015167ffffffffffffffff81111561013a5761013a610372565b604051908082528060200260200182016040528015610163578160200160208202803683370190505b5060a082015260005b85606001518110156101dc576101b38a8a8a848a604001518b60a001518c60a00151610198919061059a565b6101a2919061059a565b6101ac919061059a565b60006102cc565b8260a0015182815181106101c9576101c9610584565b602090810291909101015260010161016c565b506001606082018190526000604083018190528751602089015160006020860181905285526080850151606001517f40000000000000000000000000000000224698fc094cf91b992d30ed000000009350829084099250818360008701510880865260808601516040015193508290849008808652608086015160200151935082908490088086528290819086900960208701510860208601528181850960a08601516020015190945082915060208601510960208501819052819086089c9b505050505050505050505050565b600080600885015b90506102c187878387876102f7565b979650505050505050565b6000600884016102dd87878361033a565b90506102ea87878361033a565b90506102b287878361033a565b600060088401935060005b838110156103235760088588013560c01c6020028601019450600101610302565b506008602083028501870101359695505050505050565b600881018382013560c01c60005b818110156103695760088387013560c01c6020028401019250600101610348565b50509392505050565b634e487b7160e01b600052604160045260246000fd5b60006040828403121561039a57600080fd5b6040516040810181811067ffffffffffffffff821117156103cb57634e487b7160e01b600052604160045260246000fd5b604052823581526020928301359281019290925250919050565b600060c082840312156103f757600080fd5b60405160c0810181811067ffffffffffffffff8211171561042857634e487b7160e01b600052604160045260246000fd5b8060405250809150823581526020830135602082015260408301356040820152606083013560608201526080830135608082015260a083013560a08201525092915050565b60008083601f84011261047f57600080fd5b50813567ffffffffffffffff81111561049757600080fd5b6020830191508360208260051b85010111156104b257600080fd5b9250929050565b6000806000806000806000610160888a0312156104d557600080fd5b873567ffffffffffffffff808211156104ed57600080fd5b818a0191508a601f83011261050157600080fd5b81358181111561051057600080fd5b8b602082850101111561052257600080fd5b60208381019a509098508a0135965061053e8b60408c01610388565b955061054d8b60808c016103e5565b94506101408a013591508082111561056457600080fd5b506105718a828b0161046d565b989b979a50959850939692959293505050565b634e487b7160e01b600052603260045260246000fd5b808201808211156105bb57634e487b7160e01b600052601160045260246000fd5b9291505056fea2646970667358221220a7a85a4b4f9d0ce36571480ddff1dd6b43233e20a3aa4a7989bf23063acdf60b64736f6c63430008130033",
  "libraries": {},
  "devdoc": {
    "kind": "dev",
    "methods": {},
    "version": 1
  },
  "userdoc": {
    "kind": "user",
    "methods": {},
    "version": 1
  },
  "storageLayout": {
    "storage": [],
    "types": null
  }
}